{
  "_format": "hh-sol-artifact-1",
  "contractName": "EngageLayerProtocol",
  "sourceName": "contracts/EngageLayerProtocol.sol",
  "address": "0xE83Fcc64C9f10F6875b517b3E1e2dFd69eDD79B8",
  "abi": [
    {
      "inputs": [],
      "stateMutability": "nonpayable",
      "type": "constructor"
    },
    {
      "anonymous": false,
      "inputs": [
        {
          "indexed": true,
          "internalType": "uint256",
          "name": "campaignId",
          "type": "uint256"
        },
        {
          "indexed": true,
          "internalType": "address",
          "name": "creator",
          "type": "address"
        },
        {
          "indexed": false,
          "internalType": "uint256",
          "name": "budget",
          "type": "uint256"
        },
        {
          "indexed": false,
          "internalType": "uint256",
          "name": "rewardPerAction",
          "type": "uint256"
        }
      ],
      "name": "CampaignCreated",
      "type": "event"
    },
    {
      "anonymous": false,
      "inputs": [
        {
          "indexed": true,
          "internalType": "uint256",
          "name": "campaignId",
          "type": "uint256"
        },
        {
          "indexed": false,
          "internalType": "uint256",
          "name": "amount",
          "type": "uint256"
        }
      ],
      "name": "CampaignFunded",
      "type": "event"
    },
    {
      "anonymous": false,
      "inputs": [
        {
          "indexed": true,
          "internalType": "uint256",
          "name": "campaignId",
          "type": "uint256"
        },
        {
          "indexed": false,
          "internalType": "bool",
          "name": "active",
          "type": "bool"
        }
      ],
      "name": "CampaignStatusUpdated",
      "type": "event"
    },
    {
      "anonymous": false,
      "inputs": [
        {
          "indexed": true,
          "internalType": "uint256",
          "name": "postId",
          "type": "uint256"
        },
        {
          "indexed": true,
          "internalType": "address",
          "name": "user",
          "type": "address"
        },
        {
          "indexed": false,
          "internalType": "uint256",
          "name": "reward",
          "type": "uint256"
        },
        {
          "indexed": false,
          "internalType": "uint256",
          "name": "pointsEarned",
          "type": "uint256"
        }
      ],
      "name": "Liked",
      "type": "event"
    },
    {
      "anonymous": false,
      "inputs": [
        {
          "indexed": true,
          "internalType": "address",
          "name": "user",
          "type": "address"
        },
        {
          "indexed": false,
          "internalType": "uint256",
          "name": "amount",
          "type": "uint256"
        }
      ],
      "name": "PointsRedeemed",
      "type": "event"
    },
    {
      "anonymous": false,
      "inputs": [
        {
          "indexed": true,
          "internalType": "uint256",
          "name": "postId",
          "type": "uint256"
        },
        {
          "indexed": true,
          "internalType": "address",
          "name": "author",
          "type": "address"
        },
        {
          "indexed": false,
          "internalType": "string",
          "name": "contentUri",
          "type": "string"
        },
        {
          "indexed": false,
          "internalType": "uint256",
          "name": "campaignId",
          "type": "uint256"
        }
      ],
      "name": "PostCreated",
      "type": "event"
    },
    {
      "anonymous": false,
      "inputs": [
        {
          "indexed": true,
          "internalType": "uint256",
          "name": "postId",
          "type": "uint256"
        },
        {
          "indexed": true,
          "internalType": "address",
          "name": "user",
          "type": "address"
        },
        {
          "indexed": false,
          "internalType": "uint8",
          "name": "optionIndex",
          "type": "uint8"
        },
        {
          "indexed": false,
          "internalType": "uint256",
          "name": "reward",
          "type": "uint256"
        },
        {
          "indexed": false,
          "internalType": "uint256",
          "name": "pointsEarned",
          "type": "uint256"
        }
      ],
      "name": "Voted",
      "type": "event"
    },
    {
      "inputs": [
        {
          "internalType": "uint256",
          "name": "",
          "type": "uint256"
        }
      ],
      "name": "campaigns",
      "outputs": [
        {
          "internalType": "address",
          "name": "creator",
          "type": "address"
        },
        {
          "internalType": "uint256",
          "name": "budget",
          "type": "uint256"
        },
        {
          "internalType": "uint256",
          "name": "rewardPerAction",
          "type": "uint256"
        },
        {
          "internalType": "bool",
          "name": "active",
          "type": "bool"
        }
      ],
      "stateMutability": "view",
      "type": "function"
    },
    {
      "inputs": [
        {
          "internalType": "uint256",
          "name": "rewardPerAction",
          "type": "uint256"
        }
      ],
      "name": "createCampaign",
      "outputs": [
        {
          "internalType": "uint256",
          "name": "",
          "type": "uint256"
        }
      ],
      "stateMutability": "payable",
      "type": "function"
    },
    {
      "inputs": [
        {
          "internalType": "string",
          "name": "contentUri",
          "type": "string"
        },
        {
          "internalType": "uint256",
          "name": "campaignId",
          "type": "uint256"
        },
        {
          "internalType": "string[]",
          "name": "options",
          "type": "string[]"
        }
      ],
      "name": "createPoll",
      "outputs": [
        {
          "internalType": "uint256",
          "name": "",
          "type": "uint256"
        }
      ],
      "stateMutability": "nonpayable",
      "type": "function"
    },
    {
      "inputs": [
        {
          "internalType": "string",
          "name": "contentUri",
          "type": "string"
        },
        {
          "internalType": "uint256",
          "name": "campaignId",
          "type": "uint256"
        }
      ],
      "name": "createPost",
      "outputs": [
        {
          "internalType": "uint256",
          "name": "",
          "type": "uint256"
        }
      ],
      "stateMutability": "nonpayable",
      "type": "function"
    },
    {
      "inputs": [
        {
          "internalType": "uint256",
          "name": "campaignId",
          "type": "uint256"
        }
      ],
      "name": "fundCampaign",
      "outputs": [],
      "stateMutability": "payable",
      "type": "function"
    },
    {
      "inputs": [
        {
          "internalType": "uint256",
          "name": "postId",
          "type": "uint256"
        }
      ],
      "name": "getPollOptions",
      "outputs": [
        {
          "components": [
            {
              "internalType": "string",
              "name": "text",
              "type": "string"
            },
            {
              "internalType": "uint256",
              "name": "voteCount",
              "type": "uint256"
            }
          ],
          "internalType": "struct EngageLayerProtocol.PollOption[]",
          "name": "",
          "type": "tuple[]"
        }
      ],
      "stateMutability": "view",
      "type": "function"
    },
    {
      "inputs": [
        {
          "internalType": "uint256",
          "name": "",
          "type": "uint256"
        },
        {
          "internalType": "address",
          "name": "",
          "type": "address"
        }
      ],
      "name": "hasLiked",
      "outputs": [
        {
          "internalType": "bool",
          "name": "",
          "type": "bool"
        }
      ],
      "stateMutability": "view",
      "type": "function"
    },
    {
      "inputs": [
        {
          "internalType": "uint256",
          "name": "",
          "type": "uint256"
        },
        {
          "internalType": "address",
          "name": "",
          "type": "address"
        }
      ],
      "name": "hasVoted",
      "outputs": [
        {
          "internalType": "bool",
          "name": "",
          "type": "bool"
        }
      ],
      "stateMutability": "view",
      "type": "function"
    },
    {
      "inputs": [
        {
          "internalType": "uint256",
          "name": "postId",
          "type": "uint256"
        }
      ],
      "name": "likePost",
      "outputs": [],
      "stateMutability": "nonpayable",
      "type": "function"
    },
    {
      "inputs": [],
      "name": "nextCampaignId",
      "outputs": [
        {
          "internalType": "uint256",
          "name": "",
          "type": "uint256"
        }
      ],
      "stateMutability": "view",
      "type": "function"
    },
    {
      "inputs": [],
      "name": "nextPostId",
      "outputs": [
        {
          "internalType": "uint256",
          "name": "",
          "type": "uint256"
        }
      ],
      "stateMutability": "view",
      "type": "function"
    },
    {
      "inputs": [],
      "name": "owner",
      "outputs": [
        {
          "internalType": "address",
          "name": "",
          "type": "address"
        }
      ],
      "stateMutability": "view",
      "type": "function"
    },
    {
      "inputs": [
        {
          "internalType": "address",
          "name": "",
          "type": "address"
        }
      ],
      "name": "points",
      "outputs": [
        {
          "internalType": "uint256",
          "name": "",
          "type": "uint256"
        }
      ],
      "stateMutability": "view",
      "type": "function"
    },
    {
      "inputs": [
        {
          "internalType": "uint256",
          "name": "",
          "type": "uint256"
        },
        {
          "internalType": "uint256",
          "name": "",
          "type": "uint256"
        }
      ],
      "name": "pollOptions",
      "outputs": [
        {
          "internalType": "string",
          "name": "text",
          "type": "string"
        },
        {
          "internalType": "uint256",
          "name": "voteCount",
          "type": "uint256"
        }
      ],
      "stateMutability": "view",
      "type": "function"
    },
    {
      "inputs": [
        {
          "internalType": "uint256",
          "name": "",
          "type": "uint256"
        }
      ],
      "name": "posts",
      "outputs": [
        {
          "internalType": "address",
          "name": "author",
          "type": "address"
        },
        {
          "internalType": "string",
          "name": "contentUri",
          "type": "string"
        },
        {
          "internalType": "uint256",
          "name": "campaignId",
          "type": "uint256"
        },
        {
          "internalType": "uint256",
          "name": "likeCount",
          "type": "uint256"
        },
        {
          "internalType": "uint256",
          "name": "totalVotes",
          "type": "uint256"
        },
        {
          "internalType": "uint256",
          "name": "createdAt",
          "type": "uint256"
        }
      ],
      "stateMutability": "view",
      "type": "function"
    },
    {
      "inputs": [
        {
          "internalType": "uint256",
          "name": "amount",
          "type": "uint256"
        }
      ],
      "name": "redeemPoints",
      "outputs": [],
      "stateMutability": "nonpayable",
      "type": "function"
    },
    {
      "inputs": [
        {
          "internalType": "uint256",
          "name": "campaignId",
          "type": "uint256"
        },
        {
          "internalType": "bool",
          "name": "active_",
          "type": "bool"
        }
      ],
      "name": "setCampaignStatus",
      "outputs": [],
      "stateMutability": "nonpayable",
      "type": "function"
    },
    {
      "inputs": [
        {
          "internalType": "address",
          "name": "newOwner",
          "type": "address"
        }
      ],
      "name": "transferOwnership",
      "outputs": [],
      "stateMutability": "nonpayable",
      "type": "function"
    },
    {
      "inputs": [
        {
          "internalType": "uint256",
          "name": "postId",
          "type": "uint256"
        },
        {
          "internalType": "uint8",
          "name": "optionIndex",
          "type": "uint8"
        }
      ],
      "name": "voteOnPost",
      "outputs": [],
      "stateMutability": "nonpayable",
      "type": "function"
    },
    {
      "stateMutability": "payable",
      "type": "receive"
    }
  ],
  "bytecode": "0x6080604052600160005560018055348015601857600080fd5b5033600860006101000a81548173ffffffffffffffffffffffffffffffffffffffff021916908373ffffffffffffffffffffffffffffffffffffffff160217905550612edd806100696000396000f3fe6080604052600436106101185760003560e01c80638da5cb5b116100a0578063e92e92e711610064578063e92e92e7146103f6578063eac7d1861461041f578063f0114ad114610448578063f2fde38b14610486578063f7562765146104af5761011f565b80638da5cb5b146103055780638fb7092c1461033057806392bd38bc1461036d5780639c3c800d14610389578063a3303a75146103c65761011f565b8063358b8166116100e7578063358b81661461020c57806343859632146102495780635c09bd9814610286578063725009d3146102b15780637903a756146102da5761011f565b80630b1e7f83146101245780631252cb4814610166578063141961bc146101a35780631c763ddb146101e35761011f565b3661011f57005b600080fd5b34801561013057600080fd5b5061014b60048036038101906101469190611af9565b6104ec565b60405161015d96959493929190611c06565b60405180910390f35b34801561017257600080fd5b5061018d60048036038101906101889190611cd3565b6105d0565b60405161019a9190611d33565b60405180910390f35b3480156101af57600080fd5b506101ca60048036038101906101c59190611af9565b6105e7565b6040516101da9493929190611d69565b60405180910390f35b3480156101ef57600080fd5b5061020a60048036038101906102059190611de7565b610644565b005b34801561021857600080fd5b50610233600480360381019061022e9190611e53565b610967565b6040516102409190611d33565b60405180910390f35b34801561025557600080fd5b50610270600480360381019061026b9190611e80565b61097f565b60405161027d9190611ec0565b60405180910390f35b34801561029257600080fd5b5061029b6109ae565b6040516102a89190611d33565b60405180910390f35b3480156102bd57600080fd5b506102d860048036038101906102d39190611af9565b6109b4565b005b3480156102e657600080fd5b506102ef610bed565b6040516102fc9190611d33565b60405180910390f35b34801561031157600080fd5b5061031a610bf3565b6040516103279190611edb565b60405180910390f35b34801561033c57600080fd5b5061035760048036038101906103529190611e80565b610c19565b6040516103649190611ec0565b60405180910390f35b61038760048036038101906103829190611af9565b610c48565b005b34801561039557600080fd5b506103b060048036038101906103ab9190611f4c565b610d8c565b6040516103bd9190611d33565b60405180910390f35b6103e060048036038101906103db9190611af9565b610eef565b6040516103ed9190611d33565b60405180910390f35b34801561040257600080fd5b5061041d60048036038101906104189190611af9565b6110fb565b005b34801561042b57600080fd5b506104466004803603810190610441919061200d565b611224565b005b34801561045457600080fd5b5061046f600480360381019061046a919061204d565b61137e565b60405161047d92919061208d565b60405180910390f35b34801561049257600080fd5b506104ad60048036038101906104a89190611e53565b611447565b005b3480156104bb57600080fd5b506104d660048036038101906104d19190611af9565b61158a565b6040516104e39190612215565b60405180910390f35b60036020528060005260406000206000915090508060000160009054906101000a900473ffffffffffffffffffffffffffffffffffffffff169080600101805461053590612266565b80601f016020809104026020016040519081016040528092919081815260200182805461056190612266565b80156105ae5780601f10610583576101008083540402835291602001916105ae565b820191906000526020600020905b81548152906001019060200180831161059157829003601f168201915b5050505050908060020154908060030154908060040154908060050154905086565b60006105de33858585611698565b90509392505050565b60026020528060005260406000206000915090508060000160009054906101000a900473ffffffffffffffffffffffffffffffffffffffff16908060010154908060020154908060030160009054906101000a900460ff16905084565b6000600360008481526020019081526020016000209050600073ffffffffffffffffffffffffffffffffffffffff168160000160009054906101000a900473ffffffffffffffffffffffffffffffffffffffff1673ffffffffffffffffffffffffffffffffffffffff16036106ee576040517f08c379a00000000000000000000000000000000000000000000000000000000081526004016106e5906122e3565b60405180910390fd5b6006600084815260200190815260200160002060003373ffffffffffffffffffffffffffffffffffffffff1673ffffffffffffffffffffffffffffffffffffffff16815260200190815260200160002060009054906101000a900460ff161561078c576040517f08c379a00000000000000000000000000000000000000000000000000000000081526004016107839061234f565b60405180910390fd5b600060046000858152602001908152602001600020905060008180549050116107ea576040517f08c379a00000000000000000000000000000000000000000000000000000000081526004016107e1906123bb565b60405180910390fd5b80805490508360ff1610610833576040517f08c379a000000000000000000000000000000000000000000000000000000000815260040161082a90612427565b60405180910390fd5b60016006600086815260200190815260200160002060003373ffffffffffffffffffffffffffffffffffffffff1673ffffffffffffffffffffffffffffffffffffffff16815260200190815260200160002060006101000a81548160ff0219169083151502179055506001818460ff16815481106108b4576108b3612447565b5b906000526020600020906002020160010160008282546108d491906124a5565b9250508190555060018260040160008282546108f091906124a5565b92505081905550600080610908846002015433611940565b915091503373ffffffffffffffffffffffffffffffffffffffff16867fb6910efd8d1d738bf56054c5d79351ae490f94b373c9ff1dbe942f193ad7164a878585604051610957939291906124e8565b60405180910390a3505050505050565b60076020528060005260406000206000915090505481565b60066020528160005260406000206020528060005260406000206000915091509054906101000a900460ff1681565b60015481565b6000600360008381526020019081526020016000209050600073ffffffffffffffffffffffffffffffffffffffff168160000160009054906101000a900473ffffffffffffffffffffffffffffffffffffffff1673ffffffffffffffffffffffffffffffffffffffff1603610a5e576040517f08c379a0000000000000000000000000000000000000000000000000000000008152600401610a55906122e3565b60405180910390fd5b6005600083815260200190815260200160002060003373ffffffffffffffffffffffffffffffffffffffff1673ffffffffffffffffffffffffffffffffffffffff16815260200190815260200160002060009054906101000a900460ff1615610afc576040517f08c379a0000000000000000000000000000000000000000000000000000000008152600401610af39061256b565b60405180910390fd5b60016005600084815260200190815260200160002060003373ffffffffffffffffffffffffffffffffffffffff1673ffffffffffffffffffffffffffffffffffffffff16815260200190815260200160002060006101000a81548160ff0219169083151502179055506001816003016000828254610b7a91906124a5565b92505081905550600080610b92836002015433611940565b915091503373ffffffffffffffffffffffffffffffffffffffff16847fa7b1b60a2cca92efa4f3ad181fc08dd79427e31a2532faaac621c73f7a588c9e8484604051610bdf92919061258b565b60405180910390a350505050565b60005481565b600860009054906101000a900473ffffffffffffffffffffffffffffffffffffffff1681565b60056020528160005260406000206020528060005260406000206000915091509054906101000a900460ff1681565b6000600260008381526020019081526020016000209050600073ffffffffffffffffffffffffffffffffffffffff168160000160009054906101000a900473ffffffffffffffffffffffffffffffffffffffff1673ffffffffffffffffffffffffffffffffffffffff1603610cf2576040517f08c379a0000000000000000000000000000000000000000000000000000000008152600401610ce990612600565b60405180910390fd5b60003411610d35576040517f08c379a0000000000000000000000000000000000000000000000000000000008152600401610d2c9061266c565b60405180910390fd5b34816001016000828254610d4991906124a5565b92505081905550817f318daf69d77e946364e804495b2184222324b99fddeb42ab5fd25a919f596e8c34604051610d809190611d33565b60405180910390a25050565b60006002838390501015610dd5576040517f08c379a0000000000000000000000000000000000000000000000000000000008152600401610dcc906126d8565b60405180910390fd5b6000610de333888888611698565b9050600060046000838152602001908152602001600020905060005b85859050811015610ee057816040518060400160405280888885818110610e2957610e28612447565b5b9050602002810190610e3b9190612707565b8080601f016020809104026020016040519081016040528093929190818152602001838380828437600081840152601f19601f820116905080830192505050505050508152602001600081525090806001815401808255809150506001900390600052602060002090600202016000909190919091506000820151816000019081610ec69190612945565b506020820151816001015550508080600101915050610dff565b50819250505095945050505050565b6000803411610f33576040517f08c379a0000000000000000000000000000000000000000000000000000000008152600401610f2a90612a63565b60405180910390fd5b60008211610f76576040517f08c379a0000000000000000000000000000000000000000000000000000000008152600401610f6d90612acf565b60405180910390fd5b81341015610fb9576040517f08c379a0000000000000000000000000000000000000000000000000000000008152600401610fb090612b3b565b60405180910390fd5b600080549050600080815480929190610fd190612b5b565b919050555060405180608001604052803373ffffffffffffffffffffffffffffffffffffffff168152602001348152602001848152602001600115158152506002600083815260200190815260200160002060008201518160000160006101000a81548173ffffffffffffffffffffffffffffffffffffffff021916908373ffffffffffffffffffffffffffffffffffffffff160217905550602082015181600101556040820151816002015560608201518160030160006101000a81548160ff0219169083151502179055509050503373ffffffffffffffffffffffffffffffffffffffff16817f91b289a829e71d811b8c69e4a24ba2d40d115d8a236e9a724cb3bb2d43cf722334866040516110ea92919061258b565b60405180910390a380915050919050565b80600760003373ffffffffffffffffffffffffffffffffffffffff1673ffffffffffffffffffffffffffffffffffffffff16815260200190815260200160002054101561117d576040517f08c379a000000000000000000000000000000000000000000000000000000000815260040161117490612bef565b60405180910390fd5b80600760003373ffffffffffffffffffffffffffffffffffffffff1673ffffffffffffffffffffffffffffffffffffffff16815260200190815260200160002060008282546111cc9190612c0f565b925050819055503373ffffffffffffffffffffffffffffffffffffffff167fc37df5d14f305277c1289e9a188a097cda6684189c95f785feb056cb77a8c910826040516112199190611d33565b60405180910390a250565b60006002600084815260200190815260200160002090503373ffffffffffffffffffffffffffffffffffffffff168160000160009054906101000a900473ffffffffffffffffffffffffffffffffffffffff1673ffffffffffffffffffffffffffffffffffffffff1614806112e65750600860009054906101000a900473ffffffffffffffffffffffffffffffffffffffff1673ffffffffffffffffffffffffffffffffffffffff163373ffffffffffffffffffffffffffffffffffffffff16145b611325576040517f08c379a000000000000000000000000000000000000000000000000000000000815260040161131c90612c8f565b60405180910390fd5b818160030160006101000a81548160ff021916908315150217905550827f12669804a7330b3aae37125eb1992ac6ea2995179aff8b791ccdaf8232144f83836040516113719190611ec0565b60405180910390a2505050565b6004602052816000526040600020818154811061139a57600080fd5b9060005260206000209060020201600091509150508060000180546113be90612266565b80601f01602080910402602001604051908101604052809291908181526020018280546113ea90612266565b80156114375780601f1061140c57610100808354040283529160200191611437565b820191906000526020600020905b81548152906001019060200180831161141a57829003601f168201915b5050505050908060010154905082565b600860009054906101000a900473ffffffffffffffffffffffffffffffffffffffff1673ffffffffffffffffffffffffffffffffffffffff163373ffffffffffffffffffffffffffffffffffffffff16146114d7576040517f08c379a00000000000000000000000000000000000000000000000000000000081526004016114ce90612cfb565b60405180910390fd5b600073ffffffffffffffffffffffffffffffffffffffff168173ffffffffffffffffffffffffffffffffffffffff1603611546576040517f08c379a000000000000000000000000000000000000000000000000000000000815260040161153d90612d67565b60405180910390fd5b80600860006101000a81548173ffffffffffffffffffffffffffffffffffffffff021916908373ffffffffffffffffffffffffffffffffffffffff16021790555050565b606060046000838152602001908152602001600020805480602002602001604051908101604052809291908181526020016000905b8282101561168d57838290600052602060002090600202016040518060400160405290816000820180546115f290612266565b80601f016020809104026020016040519081016040528092919081815260200182805461161e90612266565b801561166b5780601f106116405761010080835404028352916020019161166b565b820191906000526020600020905b81548152906001019060200180831161164e57829003601f168201915b50505050508152602001600182015481525050815260200190600101906115bf565b505050509050919050565b600080821461179e576000600260008481526020019081526020016000209050600073ffffffffffffffffffffffffffffffffffffffff168160000160009054906101000a900473ffffffffffffffffffffffffffffffffffffffff1673ffffffffffffffffffffffffffffffffffffffff160361174b576040517f08c379a000000000000000000000000000000000000000000000000000000000815260040161174290612600565b60405180910390fd5b8060030160009054906101000a900460ff1661179c576040517f08c379a000000000000000000000000000000000000000000000000000000000815260040161179390612dd3565b60405180910390fd5b505b60006001549050600160008154809291906117b890612b5b565b91905055506040518060c001604052808773ffffffffffffffffffffffffffffffffffffffff16815260200186868080601f016020809104026020016040519081016040528093929190818152602001838380828437600081840152601f19601f8201169050808301925050505050505081526020018481526020016000815260200160008152602001428152506003600083815260200190815260200160002060008201518160000160006101000a81548173ffffffffffffffffffffffffffffffffffffffff021916908373ffffffffffffffffffffffffffffffffffffffff16021790555060208201518160010190816118b59190612945565b5060408201518160020155606082015181600301556080820151816004015560a082015181600501559050508573ffffffffffffffffffffffffffffffffffffffff16817f285db98a4632176385795ddf0d2b67cef1a21f47eb2f5d06f786ab6b5147e20087878760405161192c93929190612e2f565b60405180910390a380915050949350505050565b600080600091506001905080600760008573ffffffffffffffffffffffffffffffffffffffff1673ffffffffffffffffffffffffffffffffffffffff168152602001908152602001600020600082825461199a91906124a5565b9250508190555060008414611ab25760006002600086815260200190815260200160002090508060030160009054906101000a900460ff1680156119e657508060020154816001015410155b80156119f6575060008160020154115b15611ab0578060020154925082816001016000828254611a169190612c0f565b9250508190555060008473ffffffffffffffffffffffffffffffffffffffff1684604051611a4390612e92565b60006040518083038185875af1925050503d8060008114611a80576040519150601f19603f3d011682016040523d82523d6000602084013e611a85565b606091505b5050905080611aae5783826001016000828254611aa291906124a5565b92505081905550600093505b505b505b9250929050565b600080fd5b600080fd5b6000819050919050565b611ad681611ac3565b8114611ae157600080fd5b50565b600081359050611af381611acd565b92915050565b600060208284031215611b0f57611b0e611ab9565b5b6000611b1d84828501611ae4565b91505092915050565b600073ffffffffffffffffffffffffffffffffffffffff82169050919050565b6000611b5182611b26565b9050919050565b611b6181611b46565b82525050565b600081519050919050565b600082825260208201905092915050565b60005b83811015611ba1578082015181840152602081019050611b86565b60008484015250505050565b6000601f19601f8301169050919050565b6000611bc982611b67565b611bd38185611b72565b9350611be3818560208601611b83565b611bec81611bad565b840191505092915050565b611c0081611ac3565b82525050565b600060c082019050611c1b6000830189611b58565b8181036020830152611c2d8188611bbe565b9050611c3c6040830187611bf7565b611c496060830186611bf7565b611c566080830185611bf7565b611c6360a0830184611bf7565b979650505050505050565b600080fd5b600080fd5b600080fd5b60008083601f840112611c9357611c92611c6e565b5b8235905067ffffffffffffffff811115611cb057611caf611c73565b5b602083019150836001820283011115611ccc57611ccb611c78565b5b9250929050565b600080600060408486031215611cec57611ceb611ab9565b5b600084013567ffffffffffffffff811115611d0a57611d09611abe565b5b611d1686828701611c7d565b93509350506020611d2986828701611ae4565b9150509250925092565b6000602082019050611d486000830184611bf7565b92915050565b60008115159050919050565b611d6381611d4e565b82525050565b6000608082019050611d7e6000830187611b58565b611d8b6020830186611bf7565b611d986040830185611bf7565b611da56060830184611d5a565b95945050505050565b600060ff82169050919050565b611dc481611dae565b8114611dcf57600080fd5b50565b600081359050611de181611dbb565b92915050565b60008060408385031215611dfe57611dfd611ab9565b5b6000611e0c85828601611ae4565b9250506020611e1d85828601611dd2565b9150509250929050565b611e3081611b46565b8114611e3b57600080fd5b50565b600081359050611e4d81611e27565b92915050565b600060208284031215611e6957611e68611ab9565b5b6000611e7784828501611e3e565b91505092915050565b60008060408385031215611e9757611e96611ab9565b5b6000611ea585828601611ae4565b9250506020611eb685828601611e3e565b9150509250929050565b6000602082019050611ed56000830184611d5a565b92915050565b6000602082019050611ef06000830184611b58565b92915050565b60008083601f840112611f0c57611f0b611c6e565b5b8235905067ffffffffffffffff811115611f2957611f28611c73565b5b602083019150836020820283011115611f4557611f44611c78565b5b9250929050565b600080600080600060608688031215611f6857611f67611ab9565b5b600086013567ffffffffffffffff811115611f8657611f85611abe565b5b611f9288828901611c7d565b95509550506020611fa588828901611ae4565b935050604086013567ffffffffffffffff811115611fc657611fc5611abe565b5b611fd288828901611ef6565b92509250509295509295909350565b611fea81611d4e565b8114611ff557600080fd5b50565b60008135905061200781611fe1565b92915050565b6000806040838503121561202457612023611ab9565b5b600061203285828601611ae4565b925050602061204385828601611ff8565b9150509250929050565b6000806040838503121561206457612063611ab9565b5b600061207285828601611ae4565b925050602061208385828601611ae4565b9150509250929050565b600060408201905081810360008301526120a78185611bbe565b90506120b66020830184611bf7565b9392505050565b600081519050919050565b600082825260208201905092915050565b6000819050602082019050919050565b600082825260208201905092915050565b600061210582611b67565b61210f81856120e9565b935061211f818560208601611b83565b61212881611bad565b840191505092915050565b61213c81611ac3565b82525050565b6000604083016000830151848203600086015261215f82826120fa565b91505060208301516121746020860182612133565b508091505092915050565b600061218b8383612142565b905092915050565b6000602082019050919050565b60006121ab826120bd565b6121b581856120c8565b9350836020820285016121c7856120d9565b8060005b8581101561220357848403895281516121e4858261217f565b94506121ef83612193565b925060208a019950506001810190506121cb565b50829750879550505050505092915050565b6000602082019050818103600083015261222f81846121a0565b905092915050565b7f4e487b7100000000000000000000000000000000000000000000000000000000600052602260045260246000fd5b6000600282049050600182168061227e57607f821691505b60208210810361229157612290612237565b5b50919050565b7f506f7374206e6f7420666f756e64000000000000000000000000000000000000600082015250565b60006122cd600e83611b72565b91506122d882612297565b602082019050919050565b600060208201905081810360008301526122fc816122c0565b9050919050565b7f416c726561647920766f74656400000000000000000000000000000000000000600082015250565b6000612339600d83611b72565b915061234482612303565b602082019050919050565b600060208201905081810360008301526123688161232c565b9050919050565b7f4e6f74206120706f6c6c00000000000000000000000000000000000000000000600082015250565b60006123a5600a83611b72565b91506123b08261236f565b602082019050919050565b600060208201905081810360008301526123d481612398565b9050919050565b7f496e76616c6964206f7074696f6e000000000000000000000000000000000000600082015250565b6000612411600e83611b72565b915061241c826123db565b602082019050919050565b6000602082019050818103600083015261244081612404565b9050919050565b7f4e487b7100000000000000000000000000000000000000000000000000000000600052603260045260246000fd5b7f4e487b7100000000000000000000000000000000000000000000000000000000600052601160045260246000fd5b60006124b082611ac3565b91506124bb83611ac3565b92508282019050808211156124d3576124d2612476565b5b92915050565b6124e281611dae565b82525050565b60006060820190506124fd60008301866124d9565b61250a6020830185611bf7565b6125176040830184611bf7565b949350505050565b7f416c7265616479206c696b656400000000000000000000000000000000000000600082015250565b6000612555600d83611b72565b91506125608261251f565b602082019050919050565b6000602082019050818103600083015261258481612548565b9050919050565b60006040820190506125a06000830185611bf7565b6125ad6020830184611bf7565b9392505050565b7f43616d706169676e206e6f7420666f756e640000000000000000000000000000600082015250565b60006125ea601283611b72565b91506125f5826125b4565b602082019050919050565b60006020820190508181036000830152612619816125dd565b9050919050565b7f4e6f2076616c75652073656e7400000000000000000000000000000000000000600082015250565b6000612656600d83611b72565b915061266182612620565b602082019050919050565b6000602082019050818103600083015261268581612649565b9050919050565b7f4e656564206174206c656173742032206f7074696f6e73000000000000000000600082015250565b60006126c2601783611b72565b91506126cd8261268c565b602082019050919050565b600060208201905081810360008301526126f1816126b5565b9050919050565b600080fd5b600080fd5b600080fd5b60008083356001602003843603038112612724576127236126f8565b5b80840192508235915067ffffffffffffffff821115612746576127456126fd565b5b60208301925060018202360383131561276257612761612702565b5b509250929050565b7f4e487b7100000000000000000000000000000000000000000000000000000000600052604160045260246000fd5b60008190508160005260206000209050919050565b60006020601f8301049050919050565b600082821b905092915050565b6000600883026127fb7fffffffffffffffffffffffffffffffffffffffffffffffffffffffffffffffff826127be565b61280586836127be565b95508019841693508086168417925050509392505050565b6000819050919050565b600061284261283d61283884611ac3565b61281d565b611ac3565b9050919050565b6000819050919050565b61285c83612827565b61287061286882612849565b8484546127cb565b825550505050565b600090565b612885612878565b612890818484612853565b505050565b5b818110156128b4576128a960008261287d565b600181019050612896565b5050565b601f8211156128f9576128ca81612799565b6128d3846127ae565b810160208510156128e2578190505b6128f66128ee856127ae565b830182612895565b50505b505050565b600082821c905092915050565b600061291c600019846008026128fe565b1980831691505092915050565b6000612935838361290b565b9150826002028217905092915050565b61294e82611b67565b67ffffffffffffffff8111156129675761296661276a565b5b6129718254612266565b61297c8282856128b8565b600060209050601f8311600181146129af576000841561299d578287015190505b6129a78582612929565b865550612a0f565b601f1984166129bd86612799565b60005b828110156129e5578489015182556001820191506020850194506020810190506129c0565b86831015612a0257848901516129fe601f89168261290b565b8355505b6001600288020188555050505b505050505050565b7f4e6f20696e697469616c20627564676574000000000000000000000000000000600082015250565b6000612a4d601183611b72565b9150612a5882612a17565b602082019050919050565b60006020820190508181036000830152612a7c81612a40565b9050919050565b7f526577617264206d757374206265203e20300000000000000000000000000000600082015250565b6000612ab9601283611b72565b9150612ac482612a83565b602082019050919050565b60006020820190508181036000830152612ae881612aac565b9050919050565b7f427564676574203c207265776172640000000000000000000000000000000000600082015250565b6000612b25600f83611b72565b9150612b3082612aef565b602082019050919050565b60006020820190508181036000830152612b5481612b18565b9050919050565b6000612b6682611ac3565b91507fffffffffffffffffffffffffffffffffffffffffffffffffffffffffffffffff8203612b9857612b97612476565b5b600182019050919050565b7f4e6f7420656e6f75676820706f696e7473000000000000000000000000000000600082015250565b6000612bd9601183611b72565b9150612be482612ba3565b602082019050919050565b60006020820190508181036000830152612c0881612bcc565b9050919050565b6000612c1a82611ac3565b9150612c2583611ac3565b9250828203905081811115612c3d57612c3c612476565b5b92915050565b7f4e6f7420617574686f72697a6564000000000000000000000000000000000000600082015250565b6000612c79600e83611b72565b9150612c8482612c43565b602082019050919050565b60006020820190508181036000830152612ca881612c6c565b9050919050565b7f4e6f74206f776e65720000000000000000000000000000000000000000000000600082015250565b6000612ce5600983611b72565b9150612cf082612caf565b602082019050919050565b60006020820190508181036000830152612d1481612cd8565b9050919050565b7f5a65726f20616464726573730000000000000000000000000000000000000000600082015250565b6000612d51600c83611b72565b9150612d5c82612d1b565b602082019050919050565b60006020820190508181036000830152612d8081612d44565b9050919050565b7f43616d706169676e206e6f742061637469766500000000000000000000000000600082015250565b6000612dbd601383611b72565b9150612dc882612d87565b602082019050919050565b60006020820190508181036000830152612dec81612db0565b9050919050565b82818337600083830152505050565b6000612e0e8385611b72565b9350612e1b838584612df3565b612e2483611bad565b840190509392505050565b60006040820190508181036000830152612e4a818587612e02565b9050612e596020830184611bf7565b949350505050565b600081905092915050565b50565b6000612e7c600083612e61565b9150612e8782612e6c565b600082019050919050565b6000612e9d82612e6f565b915081905091905056fea2646970667358221220da2a0ada15bff0b6dd2c3c01e2305e5f9ac381c7416d604a811a1e40e998249764736f6c634300081c0033",
  "linkReferences": {},
  "deployedLinkReferences": {}
}